S00B000044696F2E73726563FD
S11300000C942A000C9434000C9434000C943400A6
S11300100C9434000C9434000C9434000C9434008C
S11300200C9434000C9434000C9434000C9434007C
S11300300C9434000C9434000C9434000C9434006C
S11300400C9434000C9434000C9434000C9434005C
S11300500C94340011241FBECFE5D8E0DEBFCDBF21
S11300600E9436000C9484010C9400008EE10E94DE
S113007043000E944A000E944F008111FCCF8EE190
S11300800E944700F8CF61E00E946D0008950E942D
S1130090F600089560E08AE20E946D0008958AE205
S11300A00E944001811115C02FEF81EE94E0215090
S11300B080409040E1F700C000008AE20E944001C5
S11300C0811109C08AE20E9440018823D9F380E0AB
S11300D0089581E0089581E008959DEC899F912D14
S11300E01124292F269526952695220F322F330F7A
S11300F0330F230F821B282F96959695969566238A
S113010019F06130E1F108959230A9F018F49130BA
S113011031F008959330D9F0943029F108953AB329
S113012081E090E002C0880F991F2A95E2F780953C
S113013083238ABB089537B381E090E002C0880F1F
S1130140991F2A95E2F78095832387BB089534B3DA
S113015081E090E002C0880F991F2A95E2F780950C
S1130160832384BB089531B381E090E002C0880FFB
S1130170991F2A95E2F78095832381BB08959230D5
S1130180A1F018F4913031F008959330C9F094300F
S113019011F108953AB381E090E002C0880F991FED
S11301A02A95E2F7832B8ABB089537B381E090E068
S11301B002C0880F991F2A95E2F7832B87BB089505
S11301C034B381E090E002C0880F991F2A95E2F7CA
S11301D0832B84BB089531B381E090E002C0880F83
S11301E0991F2A95E2F7832B81BB08959DEC899F83
S11301F0912D1124292F269526952695220F322FED
S1130200330F330F230F821B282F892F8695869552
S113021086958230A1F018F4813031F0089583304E
S1130220C9F0843011F108953BB381E090E002C03D
S1130230880F991F2A95E2F783278BBB089538B35B
S113024081E090E002C0880F991F2A95E2F7832786
S113025088BB089535B381E090E002C0880F991FF0
S11302602A95E2F7832785BB089532B381E090E0B5
S113027002C0880F991F2A95E2F7832782BB08954D
S11302809DEC899F912D1124292F2695269526953D
S1130290220F322F330F330F230F821B282F892F66
S11302A0869586958695823091F018F4813031F0E8
S11302B029C08330A9F08430E1F024C089B390E0F0
S11302C002C0959587952A95E2F78170089586B3C3
S11302D090E002C0959587952A95E2F7817008957C
S11302E083B390E002C0959587952A95E2F78170D3
S11302F0089580B390E002C0959587952A95E2F71A
S10F03008170089580E00895F894FFCF08
S9030000FC
